:020000040800F2
:10000000F8FF0120E9AA0408233B0408113B040877
:10001000253B0408353B0408453B0408000000006C
:10002000000000000000000000000000553B040834
:10003000573B040800000000F93E0408313F040863
:10004000D9A90408C53B0408D13B0408D93B0408DE
:10005000A19F0408D9A90408593B04085F3B040880
:10006000653B04086B3B0408713B0408655D0408AC
:10007000755D0408855D0408955D0408A55D0408A8
:10008000B55D0408C55D0408D9A904080000000096
:10009000000000000000000000000000773B0408A2
:1000A000ED3B0408F33B0408053C04080B3C040842
:1000B000113C0408173C04081D3C04084F3C04088C
:1000C000553C04085B3C0408613C0408D9A90408B9
:1000D000D9A904083D3C0408433C04080000000082
:1000E0009B3B0408CB3B0408D9A90408000000008E
:1000F000000000000000000000000000D55D0408C2
:1001000000000000D9A90408253C0408D9A9040866
:1001100000000000000000000000000000000000DF
:10012000E55D0408F55D0408055E0408155E040835
:10013000255E040800000000000000000000000030
:10014000000000000000000000000000D9A9040821
:10015000355E0408455E0408555E0408493C040801
:10016000673C04086D3C040800000000000000002B
:10017000000000000000000000000000000000007F
:1001800000000000D9A904080000000000000000E1
:10019000D9A90408D9A9040842884378007843EA19
:1001A000022340EA032070470B0A017043700B0CD6
:1001B000090E8370C1707047036A0239023B8B429B
:1001C00083BFC389406B01FB0300002070470246D8
:1001D00000F10B010020C30143EA500312F8010BA8
:1001E00050FA83F38A42D8B2F5D1704737B50D463D
:1001F000044620B9092000232B6003B030BD0368FA
:10020000002BF7D05A79002AF4D081885A8991427C
:10021000F0D10DF107020621186802F0F5FA002866
:10022000E8D19DF8070010F00100E3D12368E3E76F
:1002300038B50368044618785D1C20B140F2B5114A
:100240004EF0B0FE08B1256038BD4FF0FF30FBE73F
:10025000CA7E8B7E032843EA022301BF487D0A7DC4
:1002600042EA002243EA024318467047C2F30723DA
:100270008A76CB760378032B01BF120C0A75120A1B
:100280004A75704770B5C37904460BB9002070BD3C
:1002900000F13C06826B00680123314602F09FFAB0
:1002A00080B9A16BE36A626AE071CB1A9342EDD226
:1002B000A379022BEAD10A4401233146206802F0D7
:1002C0008EFAE3E70120E2E7836B8B4270B50646C6
:1002D0000D4612D0FFF7D6FF044660B92A46012327
:1002E00006F13C01306802F06BFA00281CBF4FF0A9
:1002F000FF350124B563204670BD0024FBE70000F4
:10030000002310B5C3714FF0FF3383630446FFF73A
:10031000DBFF18BB94F83B2294F83A3243EA0223FD
:100320004AF6552293421BD194F83C30EB2B03D074
:100330001833DBB2012B15D803220B4904F17200EC
:100340003EF088FF48B10522084904F18E003EF0D6
:1003500081FF002814BF0220002010BD0420FCE70C
:100360000320FAE70220F8E72D410608314106088C
:100370002DE9F043437987B0044601F0FE059BB1B7
:1003800006210DF10702006802F03EFA9DF8070011
:10039000C10709D4002D00F0BC8010F0040000D08B
:1003A0000A2007B0BDE8F083002363710DF1070256
:1003B0000521206802F028FA9DF80730DA0700F1DD
:1003C000AA800DB15B07EBD400212046FFF798FF10
:1003D0000228034603D0012824D8257975B304F2F6
:1003E0000225002102AF15F8040C10B12846FFF7D2
:1003F000D3FE47F821000131042905F11005F2D19F
:10040000267906B1013E57F826507DB1294620468F
:10041000FFF776FF0346227952B9012B0ED9013638
:10042000032EF0D9042B07D10120BAE70323F2E70A
:10043000042BF9D0012B01D90D20B2E794F8482004
:1004400094F8473043EA0223B3F5007FF4D194F8DF
:10045000533094F8526056EA032604D104F1600048
:10046000FFF79AFE064694F84C90666209F1FF3356
:10047000012B84F80690DFD894F84970BBB2E38171
:10048000002BD9D07B1E3B42D6D194F84E3094F845
:100490004D8048EA032818F00F0FA4F80C80CBD148
:1004A00094F8501094F84F0050EA012003D104F161
:1004B0005C00FFF771FE94F84B2094F84A3053EA41
:1004C0000223B9D006FB09F903EB18124A44824211
:1004D000B2D8811AB1FBF7F10029ADD0454881426D
:1004E000AAD84FF6F570814217D903271BE0B8F15F
:1004F000000FA1D0022F4FEA410018BF40184B4413
:1005000018BF01F0010123630CBF014601EB50014C
:1005100024E0284645E7032043E740F6F577B94253
:1005200094BF0127022702312B442A44032F216262
:10053000A562E3626263DAD194F8672094F86630CA
:1005400053EA02237FF478AFB8F1000F7FF474AF61
:1005500004F16800FFF720FE2063890001F2FF111B
:10056000B6EB512FFFF468AF4FF0FF33C4E905330A
:10057000032F4FF0800323722FD194F86D2094F84D
:100580006C3043EA0223012B27D1691C2046FFF778
:100590009BFE10BB94F83B2294F83A32207243EA57
:1005A00002234AF65522934217D104F13C00FFF78B
:1005B000F3FD114B984210D104F50870FFF7ECFDE4
:1005C0000E4B984209D104F50970FFF7E5FDA061D3
:1005D00004F50A70FFF7E0FD6061094A677113884E
:1005E00001339BB2138063810020064B2361E061DD
:1005F000D7E600BFF5FFFF0F5252614172724161B1
:10060000464500204845002001292DE9F0470546D0
:100610000C46174672D9036A8B426FD94379022B75
:100620003FD0032B50D0012B68D101EB5108C16A98
:1006300001EB5821FFF748FE064638BB05F13C099F
:1006400008F1010AC8F3080814F001041FBF19F8E3
:10065000083003F00F023B0103F0F00314BF134313
:10066000FBB209F80830E96A0123EB7101EB5A216A
:100670002846FFF729FE064640B9CAF3080A44B1E6
:10068000C7F3071709F80A700123EB713046BDE87C
:10069000F08719F80A30C7F3032723F00F031F432D
:1006A000F0E7C16A01EB1421FFF70EFE06460028B1
:1006B000ECD1640005F13C0304F4FF741A191F55D2
:1006C000C7F307275770DFE7C16A01EBD411FFF7C3
:1006D000FBFD06460028D9D1A40005F13C0304F433
:1006E000FE741C442046FFF757FD27F0704700F0CA
:1006F000704139432046FFF757FDC5E70226C5E79D
:100700000129F8B505460C4652D9036A99424FD2E1
:100710004379022B29D0032B38D0012B48D101EB90
:100720005106C16A01EB5621FFF7CEFD10B14FF023
:10073000FF30F8BD771CE96AC6F308062E4401EBCA
:100740005721284696F83C60FFF7BEFD0028EED101
:10075000C7F308073D44E30795F83C0046EA00204C
:100760004CBF0009C0F30B00E3E7C16A01EB1421A1
:10077000FFF7AAFD0028DAD164003C3504F4FF74C9
:100780002B19285D5B7840EA0320D2E7C16A01EBB0
:10079000D411FFF799FD0028C9D1A40005F13C0050
:1007A00004F4FE742044FFF7F7FC20F07040C0E72B
:1007B0000120BEE7B1F5001FF8B506460D4601D38E
:1007C0000220F8BDCA06FBD1826804683161C2B953
:1007D0006379022B01D9236BA3B9A389B3EB551F0E
:1007E000EED9236BB361B3697261002BE8D003EBE0
:1007F00055233C34C5F308052C44B361F461002053
:10080000DFE71346E7891A467F02BD42114604D24C
:100810002046FFF7D1FCB061E5E73068FFF770FFD5
:10082000431C024606D00128CAD9236A8342C7D98D
:10083000ED1BEAE70120C4E72DE9F0418046056899
:100840000F4649B96E69CEB12B6AB34298BF0126F3
:10085000AB69ABB9002409E02846FFF751FF012836
:10086000044658D9421C04D14FF0FF342046BDE85D
:10087000F0812B6A8342F9D83E46E9E70126E7E793
:10088000BE4215D12B6AD8F80000741C9C4228BFC8
:1008900002242146FFF734FF01283CD0431CE3D05B
:1008A000D8B16B69012B03D92A6A934238BF1E461F
:1008B00034462B6A0134A34202D8012ECAD902243D
:1008C0002146D8F80000FFF71BFF40B1012822D0D5
:1008D0000130C9D0B442ECD1BCE7002CE8D04FF0D5
:1008E000FF3221462846FFF78FFE90B957B92A6A92
:1008F000AB696C61023A93420FD92B7A43F0010342
:100900002B72B3E7224639462846FFF77DFE0028C2
:10091000EDD00128A8D00124A8E7013BAB61ECE7AA
:10092000F8B50D46012D074611462CD90468236AF7
:10093000AB4228D92AB14FF0FF322046FFF764FEC0
:1009400030B929463868FFF7DBFE064608B90020B3
:10095000F8BD012817D0431C17D000222946204695
:10096000FFF752FE0028F3D1226AA369911E8B4241
:1009700005D20133A361237A43F001032372B2420B
:100980003546DED8E3E70220E2E70120E0E7F8B5EC
:1009900005460E46FFF776FC0446F8B93146284670
:1009A000FFF70AFC05F13C060746A8634FF4007206
:1009B000214630463EF01CFCEB899C4204D3E8897A
:1009C000001B18BF0120F8BD01233A1931462868E1
:1009D00001F005FF0028F2D10134EDE70120F2E734
:1009E0002DE9F843076905682037B7F5001F24BFD4
:1009F0000023836183690446894673B1C7F30808FD
:100A0000B8F1000F39D141690133836139B9AB893C
:100A1000B3EB571F31D80023A36104200BE0EB890F
:100A2000013B13EA572328D12846FFF769FE012826
:100A3000064602D80220BDE8F883421C01D10120FD
:100A4000F9E72B6A834212D8B9F1000FE3D061694C
:100A50002046FFF7F1FE0646A8B10128EAD0431C64
:100A6000EDD001462846FFF792FF0028E7D16661E6
:100A700031462846FFF7A0FBA0613C35454427617D
:100A8000E5610020D7E70720D5E7F8B50F4600213C
:100A900004460668FFF78EFEA8B90546A1693046F0
:100AA000FFF712FC78B9E3691B78E52B00D01BB97E
:100AB0000135BD4201D1F8BD054601212046FFF7B1
:100AC0008FFF0028EAD0042808BF0720F3E70000C2
:100AD0002DE9F84FFF250668DFF8248182460F468E
:100AE0002C464FF0040B4FF6FF79DAF8181019B9BD
:100AF000BBF1000F76D065E03046FFF7E5FB83469B
:100B000000285FD1DAF81C000278002A74D0C37A7A
:100B1000E52A03F03F038AF8063059D02E2A57D031
:100B200023F02001A1F1080CDCF1000141EB0C01E4
:100B3000B9424DD10F2B50D1510647D5DAF81030BC
:100B4000457BCAF82C3002F0BF02437BAB423FD159
:100B5000C17E837E43EA01231BB2002B38D101788A
:100B6000D6F810C021F0400101390D2461434FF047
:100B7000010E13F8084000EB040B045D9BF801B074
:100B800044EA0B24BEF1000F24D0FF2920D82CF812
:100B90001140A646013101330D2BEAD103785B06E3
:100BA00007D5BEF1000F04D0FF2911D800232CF87F
:100BB0001130541EE4B200215046FFF711FF834666
:100BC000002892D00023CAF818300DE09442BCD01F
:100BD000FF24F0E74C45DED0FAE744B9FFF7F7FA17
:100BE000A84204D14FF0000B5846BDE8F88F4FF0F3
:100BF000FF33CAF82C30F7E74FF0040BE2E700BFF1
:100C00000E410608C16A4B1C2DE9F04104460568F7
:100C1000066918D1E5274FF00108A1692846FFF7BA
:100C200053FB60B9E3691F7085F807802369B342FD
:100C30000DD201462046FFF7D3FE0028EDD0042850
:100C400008BF022003E0FFF7B5FD0028E2D0BDE8B1
:100C5000F08100002DE9F04F002185B00446D0F866
:100C600000A0FFF7A7FD8046002840F093804FF0DA
:100C7000FF334FF0FF09E3624E46A1695046FFF78C
:100C800023FB8046002840F08580E5692F78002FFF
:100C900000F08480EA7AE52F02F03F03A37103D0CD
:100CA000120705D50F2B05D04FF0FF33E36258E054
:100CB0000F2B5DD194F82B30580648D479064ED5C9
:100CC000236995F80D90E36207F0BF076B7B4B45F6
:100CD00047D1EB7EAE7E46EA032636B2002E40D1E7
:100CE00095F80080DAF810B008F03F0808F1FF33FB
:100CF0004FF00D0808FB03F801212A4BF25CAB18FA
:100D00005878AB5C43EA002369B3B8F1FF0F28D8E9
:100D1000184603934EF05AF908F1010202903BF88D
:100D2000180001924EF052F90299814219D1039BA9
:100D3000019A1946904601360D2EDED12B785A06BF
:100D400003D511B13BF818305BB9013FFEB2002169
:100D50002046FFF745FE804600288ED01AE0BE42AE
:100D6000B4D0FF26F3E74FF6FF729342E3D0F8E7E3
:100D700026B92846FFF72BFA48450BD094F82B30BC
:100D8000DB0791D40B2204F1200128463EF062FAE1
:100D9000002889D1404605B0BDE8F08F4FF0040827
:100DA000F8E700BF0E4106082DE9F04F90F82BB090
:100DB0001BF0A00489B0054640F0828007683A69BC
:100DC00032F81430002B63D105F1200696E80700B5
:100DD0000DF114091BF0010F89E8070077D04023BB
:100DE00085F82B304FF0010899E80700B4463B69BD
:100DF000ACE803002CF8022BB8F1050F4FEA1242C1
:100E00008CF8002058D9981E424630F8021F00295D
:100E100040D1072102F00F0C0CF13000392801F10C
:100E2000FF3103AB88BF0CF1370003EB010C120953
:100E30008CF80100EED108AB58184FF07E0C00F88A
:100E400014CC8A4204D0B05C202802F1010C35D1C8
:100E5000324407299BBF08AB5818202010F8140C07
:100E600002F8010BA2EB060098BF01310728F0D968
:100E70002846FFF7EFFE824628BB08F10108B8F1CB
:100E8000640FB1D14FF0070A504609B0BDE8F08FAA
:100E9000013495E74FF0100C01F0010E0EEB420209
:100EA000D30344BF82F4883282F02102BCF1010CEA
:100EB0004FEA5101F0D1A8E74246AAE76246C0E7EF
:100EC0004FF0060AE0E70428DED185F82BB01BF0CE
:100ED000020F1BBF0C340D230124B4FBF3F418BF25
:100EE000013421462846FFF7D0FD82460028CBD1A9
:100EF000013C56D029692846A1EB4411FFF75AFC62
:100F000082460028C0D13046FFF761F94FF6FF79DD
:100F10008046A9693846FFF7D7F982460028B3D141
:100F2000EB69D7F810E083F80D800F22E1B24FF0A3
:100F30000D0CDA724A1E0CFB02F218739876D87602
:100F40000192844648451FBF019A3EF812000132C3
:100F50000192234A1CF802A00CF1010C03EB0A0BCE
:100F600003F80A004FEA102A002808BF4846BCF1DF
:100F70000D0F8BF801A0E5D1484503D0019A3EF84A
:100F800012200AB941F0400119700123FB710021C0
:100F90002846FFF725FD824600287FF475AF013C07
:100FA000B7D1A9693846FFF78FF9824600287FF448
:100FB0006BAF01462022E8693EF01AF903CEEB69D7
:100FC00018605960B278318819819A7295F82B307F
:100FD000EA6903F0180313730123FB7154E700BFA0
:100FE0000E410608F8B50446FFF74CF905460028FF
:100FF00042D16379032B37D1277A012F34D104F101
:101000003C0601464FF4007230463EF0F1F855239D
:1010100084F83A32AA2384F83B32522341227221C7
:1010200084F83C3084F83D30612384F83E3084F805
:101030003F2084F8222284F8233284F8201284F896
:10104000211204F50970A169FFF7AEF8616904F592
:101050000A70FFF7A9F8A26A20680132A2633B4632
:10106000314601F0BCFB257200221146206801F0D8
:10107000CBFB003018BF0120F8BD2DE9F047002759
:10108000D0F800908F75836906460C46002B00F05F
:101090009680C36A013370D1F0690023451E19465A
:1010A0002E2715F8012F202A01F1010110D0052A61
:1010B00008BFE522092906D10B2B9EBF04EB030CC8
:1010C00001338CF8097004EB030C01338CF8092010
:1010D0000B29E6D1E21800215172A27D002A5CD1D1
:1010E000002B51D004F109010825134611F8012BFA
:1010F000002A4CD092B22E2AA2F1410708BF102537
:10110000192F03D8077B3D4218BF20320A730133E1
:10111000ECE7B8F1000F05D100F520539BB2B3F511
:10112000006F13D340F2B51140EA08404DF01AFFAA
:10113000FF28C5F1FF0A18D9BAF1010F20D96319A8
:10114000020A9A75D87502231D4400200237804692
:10115000D9F81030D85B0028DBD1B8F1000F18BFE8
:10116000002525440023AB7596E748B1BAF1000F7E
:1011700008D0631998750123E6E7B8463D46E7E7CE
:101180000025EAE75546E8E73F23A37501232344FA
:1011900000229A75037B03B96372F169CB7A2372DB
:1011A00001F11C00FEF7F8FF2060CA7D8B7D43EA49
:1011B0000223E3804A7E0B7E43EA0223A380BDE83C
:1011C000F08700002DE9F04F87B0036801930B789A
:1011D0002F2B0646894601D05C2B0AD14A4613784C
:1011E0002F2B914602F10102F9D05C2BF7D000239E
:1011F00001E0019BDB69B36099F800301F2B00F21E
:101200002C81802386F82B3000213046FFF7D2FA5C
:1012100007B0BDE8F08FFE2D00F248812AF81530A6
:10122000013520E109F101020592DDF8149099F8E9
:1012300000202F2AF6D05C2AF4D01F2B8CBF00246C
:101240000424012D2CD1BAF800302E2B2ED10023EE
:101250002AF8153006F120029D4294BF20212E214C
:1012600001330B2B02F8011BF6D144F0200486F861
:101270002B403046FFF7EEFC96F82B30002800F0AC
:10128000DA800428C4D1990603F0040240F1CF802B
:10129000002A00F0E280802386F82B300020B7E798
:1012A000022D03D1BAF802302E2BCCD00AEB450325
:1012B0009DBB00230AEB45022AF81530002D00F0F3
:1012C000F5803AF81310202903F101002DD00BB955
:1012D0002E2902D144F00304E4B232F8021D2E2973
:1012E00001D0013DF9D14FF020314FF0000871627B
:1012F0003162C6F827104FF0080B47463AF8130042
:101300005A1C20B3202803D02E2810D1954212D089
:1013100044F00304E4B21346F0E733F8022D202A28
:1013200001D02E2AC5D1013DC2E70346C9E7D84501
:1013300005D295423ED1BBF10B0F33D102E0BBF198
:101340000B0F29D144F00304E4B24FF00B0B96F8D5
:101350002030E52B04BF052386F82030BBF1080FB1
:1013600004BFBF00FFB207F00C030C2B03D007F043
:101370000303032B02D144F00204E4B2A3073FF5B8
:1013800076AFFD0744BF44F01004E4B2780744BFD1
:1013900044F00804E4B26AE7954203D044F0030441
:1013A000E4B2D4D3BF00FFB22A464FF00B0B4FF08C
:1013B0000808B0E77F2838D944F00203DBB240F2D6
:1013C000B511039202934DF0CDFD10F0800FDDE9D1
:1013D000023210D000F07F003F49085C30B13F4C32
:1013E00014F8011F002965D08142F9D143F00303AD
:1013F000DBB25F2011E0FF28F0D90BF1FF31884507
:1014000004D344F00304E4B2D84684E706EB0801B1
:10141000040A81F8204008F1010806EB08011C4687
:1014200081F8200008F1010875E72346D7E7002A74
:1014300008BF0520ECE65A073FF5EAAEB379DB06B4
:1014400036D5019B03F13C013369C3F3080319440A
:10145000019B5879FEF7FCFEB0603368CDF814901C
:10146000D3F810A0002505A8FEF7E2FE421C1DD00F
:10147000B0F5803F24BF030C2AF8153083B228BF93
:1014800001351F2B7FF6D1AE2F2B3FF4CEAE5C2B58
:101490003FF4CBAE7F2B3FF6BEAE1149184611F894
:1014A000012F002A3FF4B7AE9042F8D10620AFE6F4
:1014B0000520ADE6A0F1410189B2192901D847F014
:1014C0000207A0F1610189B219299EBF203847F0B7
:1014D000010780B2A1E700BF8E40060890410608D0
:1014E0008741060800214171FEF742BF2DE9F04710
:1014F00005468CB091461F460C46002900F0BF807F
:1015000003F03F063146FEF733FF002840F0AF807E
:101510000DF13008494648F8305D4046FFF752FE6D
:10152000024620B99DF92B30002BB8BF062217F0D8
:101530001C0F49D0002A3ED0042A39D14046FFF77B
:1015400033FC0246A0BB46F00806310746D5DDF85D
:101550001CA0A946514619F8050FFEF779FE07466B
:1015600048F0DAFE01460AF10E00FEF71DFE079B69
:101570002022DA72079900224846FEF777FE079B81
:1015800000221A775A779A77DA770123EB712FB313
:1015900039464046D5F83890FFF7C2F9024638B9C7
:1015A00049462846FEF790FE013F6F610246A8B10A
:1015B0000023236032E09DF8063013F0110F5AD15A
:1015C0007807C2D50822F3E7002AF1D19DF806304A
:1015D000DA064ED4BF0701D5D8074CD4AB6B079FB2
:1015E0002362676268793107394648BF46F0400692
:1015F000FEF72EFE0146A06007F11C00FEF7CCFDB1
:101600006B89A380B2064FF000030746E0602560B7
:1016100026746374E361636104D4002210460CB045
:10162000BDE8F0870028F8D0EE8960617602BE42FE
:101630000FD30022A161002ABAD1C7F30803002BFF
:10164000EBD02846FEF7B8FDB8B100EB5720E061BB
:10165000E4E72068FFF754F801280146A7EB0607E6
:1016600003D9431CE3D10122E4E70222E2E7024668
:101670009EE704229CE707229AE7022298E70922C4
:10168000CCE72DE9F04F994685B000238846C9F88C
:10169000003003A904461546FEF7A8FD0646E0B94A
:1016A000667CD6B9237CDA0779D5E3686769DF1BE6
:1016B000AF4228BF2F4687B16269C2F30803002BEF
:1016C00054D1039BDB89013B13EA522A13D142B95F
:1016D000A06801280AD802266674304605B0BDE825
:1016E000F08FA1692068FFF70BF8F2E7431C01D1E6
:1016F0000126F1E7A061DDF80CB0A1695846FEF7BC
:101700005BFD0028E7D00AEB00037D0A01932BD094
:10171000BBF80E20DBF800000AEB0501914288BF00
:10172000A2EB0A052B46019A414601F049F8002830
:10173000DED10399CB795BB1886B019BC01AA842BB
:1017400006D24FF400723C3108EB40203DF00CFD16
:101750006D02D9F800302B44C9F8003063697F1B53
:10176000A8441D446561A6E7019BE3616569E169E1
:101770000398C5F30805C5F50075BD4228BF3D4671
:10178000FEF7A2FD0028B3D1039963693C31C3F38E
:1017900008032A46194440463DF0E6FCD9E70726EF
:1017A0009BE72DE9F04F9B4685B000238946CBF897
:1017B000003003A904461746FEF718FD064610BB85
:1017C000667C06BB237C9A0740F1A7806369FB42D5
:1017D00000D3DF439FB16369C3F30802002A7FD1BE
:1017E000039AD289013A12EA532201921ED173B9A7
:1017F000A06870B901462046FFF71EF848B9237C5F
:1018000043F040032374304605B0BDE8F08FA16972
:10181000F1E7012802D102266674F4E7431C01D1E6
:101820000126F9E7A368A06103B9A0600398E36902
:10183000826B9A4203D1FEF725FD0028F0D1DDF836
:101840000CA0A1695046FEF7B7FC0028E3D0019B2D
:101850007D0A03EB000835D0019ABAF80E30DAF8A9
:1018600000002A449A4284BF019A9D1A2B464246A0
:10187000494600F0B4FF0028D2D1DDF80CA0DAF818
:101880003810A1EB0801A9420BD201904FF400726D
:1018900009EB41210AF13C003DF066FC019B8AF80E
:1018A00007306D02DBF800302B44CBF80030636961
:1018B0007F1BA9441D44E3686561AB422CBFE36014
:1018C000E56087E76269E3689A4207D35046FEF70E
:1018D000D9FC0028A4D1039BC3F83880C4F81C802D
:1018E0006569E1690398C5F30805C5F50075BD4252
:1018F00028BF3D46FEF7E8FC002891D103986369B4
:101900003C30C3F308032A46184449463DF02CFCFA
:10191000039B4FF00102DA71C4E7072673E7F7B5BE
:1019200001A90446FEF762FC054660BB237C5B060A
:1019300029D548F0F1FC216A07460198FEF7C4FC5E
:10194000054600BB666AF37A43F02003F372206811
:10195000A26831460530FEF789FCE16806F11C00FB
:10196000FEF722FC394606F11600FEF71DFC019831
:10197000B5740123F574C371FFF734FB237C23F0A6
:10198000400305462374284603B0F0BD13B5044652
:10199000FFF7C5FF28B901A92046FEF727FC00B9CB
:1019A000206002B010BD70B50E468CB00021054617
:1019B000FEF7DEFC044668B90CA8314640F8305DFD
:1019C000FFF700FC044690B99DF92B30002B04DA98
:1019D000029BEB6120460CB070BD9DF80630DB0623
:1019E00009D507996879FEF733FCE861F2E7042826
:1019F00008BF0524EEE70524ECE72DE9F0470E4685
:101A00000021D2B0317080469146FEF7B1FC074606
:101A1000D0B9D8F81C30CDF8008002934D46DDF8DF
:101A200008A0BAF1000F15D14D4502D1013D2F2379
:101A300073557119334611F8012B03F8012B9A1BCA
:101A40002A449145F7D81E4600233846337052B0D9
:101A5000BDE8F08720216846FEF7ACFE00284BD198
:101A600006994046FEF730FC0446002842D107990B
:101A700098F80500FEF7ECFB214602906846FEF759
:101A800099FE002838D100216846FFF721F8044666
:101A900068B9079998F80500FEF7DAFB50450BD0B6
:101AA00021466846FEF79CFF04460028EBD0042C34
:101AB00014BF27460227C7E70CA96846FFF7DDFADF
:101AC0000CAA2244631C927D62B99D4216D32A1B44
:101AD0002346324443B96B1E1B1B2F22E44325448B
:101AE000F2549CE71C46EBE7013B0CA91944897DA5
:101AF000D154EFE70746A7E70746A5E71127A3E775
:101B0000F7B50D4601A90446FEF770FB064600280E
:101B10003FD1667C002E3CD1E368AB4204D2227CEC
:101B200012F0020F08BF1D460022636962610DB901
:101B300028461CE0019AD7897F0203B3013B6A1E45
:101B4000B3FBF7F1B2FBF7F28A4218D37A421340A3
:101B5000A1696361ED1A002940D10020E36865693D
:101B60009D4281BF237CE56043F040032374C5F3AD
:101B7000080575B1E36983420BD0E06109E0A16813
:101B800079B92046FEF758FE0128014604D1022605
:101B90006674304603B0F0BD013001D10126F7E78D
:101BA000A160A161D7E73B446361237C9A07A5EB61
:101BB000070506D52046FEF73FFE014628B9054633
:101BC0000FE02068FEF79CFD01464B1CE6D0012982
:101BD000DDD9019B1B6A8B42D9D9A161BD426369E2
:101BE000E1D863692B446361C5F30803002BB4D0CB
:101BF0000198FEF7E1FA0028C9D000EB5520ADE7C7
:101C000070B5054616460C4621B30021FEF7B0FB21
:101C100068B9256031462046FFF7D4FAE0B994F957
:101C20002B30002B0BDBA379DB0603D4052000232C
:101C300023600EE06879E169FEF70AFBA0606B891A
:101C4000A38000212046FEF7B5FD0428EED0002831
:101C5000EDD170BD0920FCE70428E7D0E7E713B514
:101C600001A90446FEF7C2FA00B9206002B010BD17
:101C700073B50D4601A90446FEF7B8FA20B901462E
:101C800020461DB9FEF796FD02B070BDFEF720FF9D
:101C900010F0FB06F8D129462046FFF7EEF9314651
:101CA0002046FEF79DFE042808BF0020ECE770B533
:101CB0000E468CB0002104461546FEF759FB0094F1
:101CC000044670B931466846FFF77CFA044640B9CD
:101CD0009DF92B30002B07DB1DB129466846FFF725
:101CE000CCF920460CB070BD0624FAE72DE9F84F78
:101CF000884600210446FEF73BFB074640B9D4F86E
:101D000020A0A369AAF10202934204D8C8F80030C7
:101D10003846BDE8F88F6379012B17D102260546B6
:101D200031462046FEF7ECFC431C37D0012837D063
:101D300000B90135236A0136B342F1D8C8F8005022
:101D4000237AA56143F001032372E1E7E16A0646C5
:101D5000054604F13C0936B9204601F1010BFEF7B6
:101D6000B3FAF8B959466379022B09EB06000DD195
:101D700019F80630427853EA022308BF01350236CB
:101D8000BAF1010AC6F30806E5D1D7E7FEF704FA6F
:101D900030F0704308BF01350436F1E70127CDE785
:101DA0000227CBE70746C9E72DE9F0410F4698B077
:101DB00002210646FEF7DCFA0446A0B918AD394602
:101DC00045F8606D2846FFF7FDF9044658B99DF8BF
:101DD0002B309A063ED41B063CD49DF8068018F0A2
:101DE000010F04D00724204618B0BDE8F081079900
:101DF0007079FEF72DFA18F0100F07460BD1284620
:101E0000FEF700FF04460028EDD1D7B93046FFF7B2
:101E1000E9F80446E7E7F3698342E3D00E902146F0
:101E20000CA80C96FEF7C6FC04460028DBD1014640
:101E30000CA8FEF74DFE04460028D3D00428D2D1CA
:101E4000DDE7024639462846FEF76AFD04460028CB
:101E5000DCD0C8E70624C6E72DE9F04F0E4691B066
:101E600002210546FEF784FA0446002871D10DF1DF
:101E70004008314648F8305D4046FFF7A3F9044674
:101E8000002874D0042864D19DF83B1011F0200183
:101E90006FD110AF47F8405D3846FEF7CDFC0646DF
:101EA00000285AD001285AD0431C5C425C4148F0BB
:101EB00033FA8246002C54D131462846FEF767FD9E
:101EC000044600284DD14FF02033EB632B64C5F856
:101ED00043302E2385F83C30102385F84730514697
:101EE00005F1520005F13C0405F10509FEF75CF926
:101EF000324621464846FEF7B9F905F15C031A4619
:101F000051F8040B42F8040B9942F9D12E2385F8BD
:101F10005D30069A48464FF0010BFEF7A7F985F8A9
:101F200007B04046FEF740FF0446D0B90B98514633
:101F30001630FEF739F932460B994846FEF796F906
:101F40000B9B1022DA72284685F807B0FFF74AF893
:101F50000446204611B0BDE8F08F0724A7E702240D
:101F6000A5E7002231463846FEF7DAFCF1E70824FF
:101F7000EFE70624EDE72DE9F0410C46A0B0022181
:101F800006469046FEF7F4F9002879D120AF2146A5
:101F900047F8606D3846FFF715F9002870D19DF8B5
:101FA0004B3013F0A00F6ED10F9B6C4603F1200550
:101FB00018685968224603C20833AB421446F7D169
:101FC0003D460FCD14AC0FC40FCD0FC495E80F00E4
:101FD00084E80F00414614A8FFF7F4F848B9169AB0
:101FE0000A9B9A4203D1189A0C9B9A4203D008206C
:101FF00046E0042844D114A8FEF7D6FE00283FD1BD
:102000001B990DF10D0301F10D020DF11D0053F8A7
:10201000044B42F8044B8342F9D1188810809B7816
:1020200093709DF80B30DA0658BF43F0200301246B
:10203000CB72F471CB7ADB061BD50A9A169B9A42B7
:1020400017D07079FEF704F901463046FEF7B4F870
:102050000146D0B13046FEF737F988B996F85D30C1
:102060002E2B06D1169A06F15C01701DFEF7FEF8C4
:10207000F4713846FEF7C6FD10B93046FEF7B2FFE0
:1020800020B0BDE8F0810620FAE70220F8E7000062
:10209000F0B595B0074601910221FEF769F90546B2
:1020A000002833D102AE4FF0203302930446736010
:1020B000C6F80730019B1B781F2B20D89DF80830ED
:1020C000E52B22D01CB1631EF25C202A30D0002107
:1020D00008A808970A91FEF76DFB0546B0B90121E3
:1020E00008A8FEF7F5FC70BB0F9A1CB3334603CB70
:1020F0001060516019889B78937211811CE001A8CF
:10210000FEF796F8B0F5803F03D30625284615B0B4
:10211000F0BD4CF05BFF40F2B5114CF023FF0028FE
:10212000F3D01D4A12F8013F83B39842FAD1ECE78D
:102130001C46C7E7E52313700123FB713846FEF701
:1021400051FF0546E2E70428FBD1002CDED0012137
:1021500008A8FEF79AFC05460028D7D120220146A0
:102160000F983DF045F80F9B0822DA720F9ABDE7F1
:10217000092CCAD814AB2344020A03F8482C0134B2
:1021800014AB2344013403F8480C93E7FF28EFD83D
:102190000A2CF5D9B9E700BF1A4106082DE9F04F1E
:1021A00006688BB01C4600234371039103790293A8
:1021B000154605210DF11F02304600F025FB9DF864
:1021C0001F30DF0700F18782580700F1868208AAD6
:1021D0000321304600F018FB30B9089A531EB3F5BE
:1021E000004F01D21A4201D00123089345B15D4B43
:1021F000A5F500729A4203D913200BB0BDE8F08F09
:102200006A1E2A40F8D1149B5B0A0593002C00F04B
:102210006682002B00F06382029B002B63D00123B7
:102220002146304600F0CCFA08B10120E5E794F8E9
:10223000FF2194F8FE3143EA02234AF655229342E5
:1022400001D00E20D9E7029B04EB031101F5D771F1
:102250000B79002BF5D001F10800FDF79DFF8146B9
:1022600001F10C00FDF798FF0990DDF824A0BAF108
:10227000150FE6D96B0A802BBED8039A12F0020E16
:1022800008D002F00701022900F038821146C90780
:1022900040F134820399CA07AED5002B53D132489E
:1022A0004FEA1A354FF0010830F8021F09B1A94270
:1022B00031D940F6F571BAFBF8F58D429BBF05EBBD
:1022C0004505013502356D088CBF6D00033505F2FB
:1022D000FF154FF020018CBF022701276D0A4FF038
:1022E000010B01912CE209AA0121304600F08CFA81
:1022F00000289AD1039B13F0080F099B0CBF4FF0E5
:102300003F094FF000094B459BD3A3EB0903099309
:10231000ABE75B00F8E14FEA4808C5E7022F25D19B
:10232000049A4FF6F5718A420FD9002B40F0E281F2
:102330004FEA4803402BB0D9BEF1000F40F0E081D6
:10234000802B3FF67EAF9846B3E7049A40F6F571CE
:102350008A4212D8002B7FF474AF4FEA4803802BD7
:102360009BD96EE700FEFF0036410608049A40F64E
:10237000F5739A423FF665AF01274FF400720021D2
:1023800020463CF035FFD74B84F80EB01A68226027
:102390005A6862601A899B7A2281032F4FF00202E9
:1023A000A3724FF00003E3722273CBF3072B4FF0BD
:1023B0000102637418BF0223BAF5803F84F80D80D0
:1023C00084F80FB02274A37480F01D8184F813A0E8
:1023D000CAF3072A84F814A0F82363753F232376F1
:1023E0004FF0000AFF2384F819A0A37684F81BA0FD
:1023F000494604F11C00FDF7D7FE032F40F0098188
:1024000047F08AFF014604F14300FDF7CDFE29465F
:1024100004F12400FDF7C8FE022384F82C300123C8
:1024200084F83030062384F83230802384F840303A
:10243000292384F84230AC4B84F82DA084F82EA0D8
:1024400084F82FA084F831A084F833A004F1470267
:1024500003F1100153F8040B42F8040B8B42F9D13D
:1024600019889B7893704FF0550B6FF055031180CE
:10247000304684F8FF3184F8FEB101234A462146F4
:1024800000F0ADF9824600287FF4CFAE032F3FD194
:10249000012309F106022146304600F0A0F94FF46D
:1024A0000072514620463CF0A3FE52232370637015
:1024B0006123A37084F8E731049B41227221E2700A
:1024C00084F8E41184F8E51184F8E621591E04F536
:1024D000F470FDF769FE022384F8EC316FF05503C8
:1024E00084F8FF3109F107020123214684F8EDA1A8
:1024F00084F8EEA184F8EFA184F8FEB1304600F034
:102500006EF9012309EB03022146304600F067F91A
:10251000149B23F4FF7222F00102002120463CF0BC
:1025200067FE032F40F09280F8232370FF2363702F
:10253000A370E37023716371A371E37123726372FB
:10254000A3720F23E372059B009AAB4228BF2B4670
:10255000214630469A4600F042F9014600287FF4B1
:1025600064AE4FF4007220463CF042FE009BB5EB97
:102570000A0553440093E6D1019B032F08BF43464D
:102580000193019B059A934228BF13462146009A66
:1025900030461D4600F023F900287FF446AE009B2C
:1025A0002B440093019B5B1B0193EAD1032F56D070
:1025B000099BB3F5803F54D2022F14BF0125042597
:1025C000029B002B4FD0002201232146304600F011
:1025D000F7F8024600287FF428AE029B04EB0313B1
:1025E00083F8B25101232146304600F0F8F8002864
:1025F0007FF41BAE00221146304600F005F9003092
:1026000018BF0120F9E5514604F12000FDF7CCFD8B
:10261000E2E647F081FE014604F12700FDF7C4FD24
:10262000C5F30723E375802384F82430292384F835
:1026300026302E4BA57504F12B0203F1100153F83F
:10264000040B42F8040B8B42F9D109E7012F28490A
:10265000204618BF6FF00701FDF7A6FD73E70C25B4
:10266000AEE70625ACE7039B1B07C3D44FF400720B
:10267000029920463CF0BCFD552384F8FE31099AAE
:1026800084F8C251AA2384F8FF31029B84F8BE313A
:1026900084F8C1314A4443F6C163B2FBF3F2FE232E
:1026A00084F8C331930843F03F03012784F8C43111
:1026B00084F8C521494604F5E37084F8BF7184F8B5
:1026C000C071FDF771FD099904F5E570FDF76CFD2A
:1026D0003B46029A87E703208FE50A208DE511200B
:1026E0008BE500BF544106086041060874410608A6
:1026F000F8FFFF00BEF1000F3FF4A3AD002B59D14E
:102700002D484FEA5A45012330F8021F19B1A9425A
:102710007FF6FFAD0021BAFBF3F0284F8500A0F54E
:102720007F40F63805F20725B8424FEA55253FF6B7
:1027300088AD98460B46002101914FF0200B0327EE
:1027400009EB0B0100910199DDF820C06818009990
:1027500008440CF1FF31032F0144CCF1000C08BFF9
:10276000009A01EA0C01A1EB000101BF52188B4451
:102770001146009118BF6D18C9EB08110844824535
:10278000FFF45FAD019AAAEB0B01491B032FA1EBEC
:102790000201B1FBF8F204927FF4C0AD4FF6F5717F
:1027A0008A423FF6EAAD002B7FF44BAD5FEA580357
:1027B0003FF447AD1946AEE744410608FFFFFE0F60
:1027C00010B50C4611461A4638B1234604303BF08A
:1027D000C9FF003018BF012010BD0420FCE710B570
:1027E0000C4611461A4650B1234604303BF0DEFF3A
:1027F00010F11E0F05D0003018BF012010BD0420BD
:10280000FCE70220FAE7000070B50D4614460646C4
:10281000002833D001F00703234AD15C00292FD0D0
:10282000002204303BF0ECFF062D27D8DFE805F04E
:1028300008050A162619190006202AF05FFD2060F7
:10284000002070BD062805D14FF400732380238833
:10285000B360F5E72AF052FD2080F8E701232360FA
:10286000EEE7062801D0430806D1336A002B0CBFDF
:10287000042300232370E3E70123FBE70420E0E7C0
:10288000062DFBD801A353F825F000BF412800080E
:1028900039280008492800085D2800087D2800081C
:1028A0006B2800086B28000878A60508086833F034
:1028B0003EB8000037B51D46043001AB1446FEF7A4
:1028C00070FF38B1064B1B5C2B604FF0FF34204685
:1028D00003B030BD019BA342F9D01C23F4E700BF35
:1028E000B8A6050813B51C46043001ABFEF7C9FEB7
:1028F00030B1044B1B5C23604FF0FF3002B010BDC1
:102900000198FBE7B8A605082DE9F8438146506811
:1029100090460F4630F0CAFB254A0138002410F8D3
:10292000013FD3B92C201DF0C5FB0646054646F8ED
:10293000047BD8F8000030F0B9FBE3B20246314620
:1029400009F14400FEF7D2FD074640B328461DF0CA
:10295000CBFB184BD85D29F0B5FE722B13D008D8ED
:10296000612B19D0622B0CD02B2BD8D144F003044F
:10297000D5E7772B0AD0782B0BD0742B08BF1746DE
:10298000CDE70D4FCBE744F00104C8E744F00A045B
:10299000C5E744F00604C2E744F01204BFE7E306CB
:1029A00003D529693046FFF7ABF82846BDE8F88320
:1029B00008A70508B8A60508CCA6050830B587B055
:1029C000054603AC084611461A46064B009301948F
:1029D00003232AF081F9224629460020FFF794FFBD
:1029E00007B030BDA0A605081FB50623CDE901122A
:1029F00001AA03490393FFF787FF05B05DF804FBC5
:102A000008A7050870B5054608460C462AF0ECFBF9
:102A10002346024602492846BDE8704000F094BFB4
:102A200094A60508022970B5044615461E4613D122
:102A30005368012B0AD0022B0CD01BB91168201D42
:102A4000FFF75EF8A3692B60002070BD81692B68D9
:102A50001944F4E70169FAE701290AD10430FEF7C5
:102A60005EFF0028F0D0084B1B5C33604FF0FF3056
:102A7000EBE7042906D14368002BE5D00430FEF7CC
:102A800085FFEEE71623F0E7B8A605082DE9F74F16
:102A900006299DF8305010D8012905D93F2303702D
:102AA00001300023037001E00029FAD1012994BF0D
:102AB0000020012003B0BDE8F08F10EE104A002C7A
:102AC00025DAB4EE400AF1EE10FA20D62D25441C8A
:102AD0000570B1EE400A9FEDC47A0190F0EEC07A25
:102AE000F4EE477A02F0200EF1EE10FA5FFA8EF55E
:102AF00013DD85F04903237085F04E0385F046050C
:102B00006370E11CA57000230B70081AD2E715B1A1
:102B1000441C0570DFE70446DDE7B4EE400AF1EE41
:102B200010FA08D745F04E0385F041052370657013
:102B3000E11CA370E7E7002B42F02002B8BF062398
:102B4000672A02D1002B08BF0123251A0139491B2E
:102B500010EE105A002D4BD1662A3BD15D1C8D42E0
:102B6000A8BF8B1E002766215D1C0091BC463E4617
:102B700023EAE3730099652940F02C815D1C4FF036
:102B800000084FF02E0AB2EE047A454540F38380E8
:102B9000FDEEC07A04F1010917EE901A0029ABBFCF
:102BA00017EE901A302101F1300B2170A8BF84F884
:102BB00000B0E04504D11BB104F1020984F801A082
:102BC000F8EEE77A08F1010830EE670A4C4620EE8D
:102BD000070ADAE75D1D8D42A8BF8B1F652A0092A8
:102BE0004FF0000500F0EC802F46AC462E46BFE7C4
:102BF000B5F17E5F80F08F80DFED7C7ADFF8F4C185
:102C0000DFF8F491B4EEE70AF1EE10FA4FF00005A8
:102C1000ACBF4FF031084FF0300820272E46BCECF7
:102C2000017AB4EEC07AF1EE10FAC4BF09EB050ADE
:102C30009AED007A05F10405C4BFF61920EE070AE3
:102C4000182D4FEA6707EAD110EE105AB5F17E5FF2
:102C500045D2B4EEE70AF1EE10FA3BDB002E0CBFD2
:102C60002B272D27B7EE000A662A03D0672A48D102
:102C7000042E46DC672A04BF06F1FF355B195D1C94
:102C80008D42A8BF8B1E84F8008053BB662101349F
:102C90001D461F460091662A40F0B080AE4240F3C8
:102CA000098197B10A2196FBF1F393FBF1F201FB45
:102CB000136601FB12324EF0450E3032303684F886
:102CC00000E06770A270E670043400232370019B5B
:102CD000E01AEFE6F2EE047A20EE270A01362D27FD
:102CE000C2E72E2161701D4602343021013E69D0B9
:102CF0001DB92F464FF0FF3C45E004F8011B013D94
:102D0000F4E74D1F9D4261DC672A5DD08B1F009266
:102D10000025AC462CE70025DFF8DCC0DFF8D480C6
:102D200020272E46FCEC017AF4EEC07AF1EE10FA80
:102D30009CBF08EB0509D9ED007A05F104059CBF9D
:102D4000F61920EE270A182D4FEA6707EAD1FDEEA3
:102D5000C07A17EE905A092DC2BFDFED257A0136F1
:102D600020EE270A662A11D18E4212DA9D1901350A
:102D70008D4204DB8B1B023B591C08BF0023F51856
:102D80000135B446002766210091F1E6652A40F03E
:102D90008C804D1F9D4200DC8B1F00252B27AC46ED
:102DA0006521F1E71D1D8D4200DB4B1F9E4204DBB8
:102DB0006721009100252B27ABE7711C5B1ADEE72A
:102DC0002B2712E7374695E72B46A0E70025009210
:102DD000AC46CFE6009967297FF4D1AE0BB11D4612
:102DE000CDE601252B46CAE6FFFF7F7FF8FF7F3F38
:102DF000CDCCCC3D345105084C510508F1EE047A98
:102E0000B4EEE70AF1EE10FA26DB651E4FF030094A
:102E1000A84618F801C9BCF12E0F3BD0ACF1300A1E
:102E2000BAF1090F29D9681C0578302D14D190F812
:102E300001C0BCF12E0F31D1009966292ED02D2F63
:102E400080F800C0457027D1013E08BF2B272146DE
:102E5000884225D331210170672A7FF422AF002BED
:102E60003FF41FAF23461C46013B14F8012C302AC7
:102E7000F9D02E2A08BF1C4613E7BCF1390F05D044
:102E80000CF1010C85F800C02846CDE7A84288F86F
:102E90000190C9D04546BBE70136D8E70134D6E7F3
:102EA00011F8015C01F80159D2E7672A3FF47AAFC3
:102EB00000927FE7F1EE047AB4EEE70AF1EE10FA41
:102EC000A3DAEEE608B5044631B1054B03608A6B20
:102ED000096800232CF028FA20461DF0B9F800BF3D
:102EE000B06105082DE9FF471F460192461812B14F
:102EF000023A222A34D80546B5422C4639D22078E7
:102F00001EF030FA013580460028F5D123782B2BAE
:102F100029D12C46311B204601AA27F01AFF25187B
:102F2000A9460024B1454B4626D3B8F1000F00D086
:102F30006442640044F00104AB4209D01D46B5422E
:102F40002B4642D2187801351EF00CFA0028F6D133
:102F50002049019A20482CF0ABF93946FFF7B2FF1F
:102F60001E4829F0E3F92D2B04BF2C464FF0010831
:102F7000D0E74FF00008CDE719F8012BA2F1300A95
:102F8000BAF1090F09D95F2ACCD042F02002A2F190
:102F900061011929C9D8A2F1570A01995145C4D92B
:102FA000204636F095FB28B9019B03FB04A494EA64
:102FB0004403B7D504A8019B40F8045D4246711B49
:102FC0002DF06AFB039B0446B6E7C1D1204604B04E
:102FD000BDE8F0877F510508A06205086A51050821
:102FE0002DE9F04F2DED028B83B0914600930E9B9F
:102FF000019346180446B442254680F0288128787B
:103000001EF0B0F9013482460028F4D12B782B2B26
:1030100009D125468346B4420CD30023DFED938AC1
:103020009A46194681E02D2B03D125464FF0010B1E
:10303000F1E783462B7843F02003692B32D1AB1C98
:103040009E4240F207816B7843F020036E2B40F0E4
:103050000181AB7843F02003662B40F0FB80EB1D31
:103060009E4205F103041AD9EB7843F02003692B43
:1030700015D12B7943F020036E2B10D16B7943F0DF
:103080002003692B0BD1AB7943F02003742B06D1BD
:10309000EB7943F02003792B01D105F108049FED72
:1030A000748A14E06E2B58D1AB1C9E4240F2D28041
:1030B0006B7843F02003612B40F0CC80AB7843F079
:1030C00020036E2B40F0C6809FED6A8AEC1CBBF19A
:1030D000000F01D0B1EE488AA54209D0B442234680
:1030E00080F09580187801341EF03CF90028F5D165
:1030F000614962482CF050F80199FFF7E3FE022085
:10310000274697F800C0ACF1300EBEF1090F07F169
:10311000010444D802282ED1594FB94201DC08FBE2
:1031200001E1B442ECD302B149420B4413F1250F43
:10313000BEBFDFED547A253368EEA78A13F1090F7D
:103140005AD35B4200EE903AB2EE040AF8EEE00A7F
:103150003CF0D6FF88EE808AB9E700222F4613465E
:1031600011461046DFED418A9FED477AF2EE046A80
:103170004FF00A08C5E7F4EEC78AF1EE10FA0BD556
:1031800007EE90EAF8EEE77A0128E8EEA67AF0EE8C
:10319000678A2DD1013BC4E728B90133C1E720B9C3
:1031A000BCF12E0F03D10120BBE7022813D04CF055
:1031B000200EBEF1650F0ED1A64253D978782B2888
:1031C00004D1BC1CB44293D00220AAE72D2896D18A
:1031D000BC1C0122F6E7B9F1000F04D04CF0200E20
:1031E000BEF16A0F06D0BCF15F0F9AD03C469AE759
:1031F000002096E7CA4696E707EE903AB2EE040A38
:10320000F8EEE70A3CF07CFF28EE808A5FE77FF467
:103210006FAFBAF1000F0AD09FED140AF0EE480A22
:1032200003B0BDEC028BBDE8F04F2BF06DB8009BF6
:1032300023B1DFED0E0AB0EE480AF1E7B0EE480A1E
:1032400003B0BDEC028BBDE8F04F2CF089B94FF014
:10325000000BE2E6BBF1000F3FF44AAF2C469FEDB6
:10326000038A37E73FF444AF5DE700BF000000008A
:103270000000807F0000C07F64510508A06205083F
:1032800064666606EA1C0802EC78AD6008461146E2
:1032900040F046BD70B5054608460E463BF0FCFFC3
:1032A000044620B102466B6828683146984720469C
:1032B00070BD00002DE9F74F01919DF83010914647
:1032C0000D9A11F0DF0F0646A2EB09023DD030291E
:1032D0000CA9244F0EBF4FF010080F464FF0010805
:1032E00013F0800435D0022492FBF4F4151B002C5B
:1032F00036DDA246D045C346A8BFD34673683068C2
:103300005A463946AAEB0B0A9847BAF1000FF1DC8E
:10331000B9F1000F05D07368019930684A469847A3
:103320004C44002D0DDD2C44A845C146A8BFA9463C
:10333000736830684A463946A5EB09059847002D61
:10334000F2DC204603B0BDE8F08F074F4FF01008C5
:10335000C6E713F0010501D11446C8E71546D7E7C3
:103360000024D5E788420508774205082DE9F04397
:1033700089B007460020119D9DF84880139E8DF866
:103380000F0002B3814219DA2D228DF80F20494235
:10339000109A08ACA2F10A0C0DF1100EB1FBF3F07B
:1033A00003FB1012092A8CBF6244303204F8012D4D
:1033B000744501460DD00028F0D10AE0A80726D5B3
:1033C0002B228DF80F200029E2D108AC302304F81D
:1033D000013D15F040099DF80F301CD023B30122A8
:1033E000CDE900822B460DF10F013846FFF762FF51
:1033F000013E814608AACDE900862B46121B2146D4
:103400003846FFF757FF484409B0BDE8F0836A0724
:10341000D9D52022D5E7002BECD004AA9442E9D9D3
:1034200004F8013C013CE5E79946E3E72DE9F04F5C
:1034300091B082461C46C8079DF86C301A9D0593D2
:103440000F469146DDE91C860BD4B90703D13A68D3
:10345000804B9A4205D0384629F050FF400040F09A
:10346000010715F0810306D1059A302A03D1B04532
:10347000B8BFB0461E4638462DF023F800280DF19F
:10348000200B18DBAA0712D52B238DF820300DF165
:103490002103E1B2EC061DD5B9F1020F0DD11A4698
:1034A000302002F8020B481C5870134612E06B07DC
:1034B00001D52023E9E75B46EBE7B9F1080F3ED1E0
:1034C000A8054FF030021A7045BF01F10E025A7084
:1034D00001330233002215F0200F1A70A3EB0B0307
:1034E000049314BF2C231346012E0CA8C8BF45F02B
:1034F0004005099015F040044FF01000CDE90A0294
:103500008DF81F20CDE9021323D0CDE900923B4670
:103510000BAA0AA909A82CF0A5FE03782D2B814639
:1035200040F086800B9C8DF81F30013C012E00F18D
:1035300001090B9400F3898000273C4636E0B9F17D
:10354000100FC7D11A46302002F8020B01F1170004
:10355000AAE708ABCDE900930BAA3B460AA909A844
:103560002CF080FE012E81461FDD0B9CB442B8BFBB
:103570003446A04516DD15F00107A8EB040401D080
:103580002746002425F001054CB120230093002399
:1035900001941A4630495046FFF78CFE044630230A
:1035A000059303E000273C46ECE7274669061DD556
:1035B0009DF81F305BB100230122CDE900320DF1EF
:1035C0001F015046FFF776FE08F1FF380444049BC4
:1035D00063B100230122CDE900325946049A5046D6
:1035E000FFF768FE049B0444A8EB0308059B0093C7
:1035F000012ED8BF464601962B460B9A49465046A7
:10360000FFF758FE04444FB1202300930023019795
:103610001A4611495046FFF74DFE044409980CAB79
:10362000984201D01CF060FD204611B0BDE8F08F3B
:10363000012E81DD0B9C9DF81F30B442B8BF34468B
:1036400003B10134049B1C4493E7B442B8BF344631
:10365000F7E700BFF467050819FD05082DE9F043F9
:1036600016468BB0B20780469946129F3CD416F09E
:10367000040F0CBF0023202300930A46139B202134
:1036800002A8FFF703FAF30504460DD5431C1F2BD0
:103690000AD80AAA1444252204F8202C0AAA1A449B
:1036A000002102F8201C1C4616F040051ED09DF893
:1036B00008302F2B4FF000031AD8012202A9CDE9C0
:1036C00000324046FFF7F6FD013F0546013C0DF193
:1036D0000901CDE90097334622464046FFF7EAFD4F
:1036E00028440BB0BDE8F0832B23C5E702A9F0E71F
:1036F00002A91D46EDE700002DE9F04F824689B092
:10370000144600250E46334613F8012B8AB9B14200
:1037100013D30B78002B00F00E81013120234FF0E2
:1037200000090A780E46481C8AB990464FF0FF32CD
:103730004FE0252AEBD01E46E5E7771ADAF8043089
:10374000DAF800003A4698473D443146E1E72D2A31
:1037500003D149F001090146E3E72B2A02D149F0E0
:103760000209F8E7202A02D149F00409F3E7212AE7
:1037700002D149F00809EEE7302A22D149F0400988
:103780001346E8E70A2000FB0828A8F130080E4697
:1037900011F8012BA2F130000928F3D92E2AC5D146
:1037A00072782A2A10D008460022064610F8011B1B
:1037B000A1F13007092F0CD80A2606FB0212303A75
:1037C000F3E74FF00008E2E72268023622EAE272ED
:1037D000043431786C2908BF01363778002F00F0A7
:1037E000AA80642F00F0818028D8502F2DD00ED8C9
:1037F000A7F14501022940F28780DAF80430DAF8AF
:1038000000000122314698470135A3464AE0622F65
:103810003BD04DD8582FF0D17A1C27F00F070F3F1F
:1038200002F00602FFB2CDE9023804F1040BCDF834
:1038300004900097C2F11003002260E0712F42D083
:103840000DD8672F60D9702FD7D1CDE90238612309
:10385000009304F1040BCDF804901023ECE7752FCE
:10386000DAD0782FD8D0732FC7D1511C04F1040BB4
:10387000246805D1204604933BF00EFD049B0246CC
:10388000CDE9003821464B4608E0226804F1040BDC
:10389000CDE900384B4642B1294904225046FFF792
:1038A00009FD0544711C5C462CE705222549F5E716
:1038B00008A9226801F8042D04F1040BCDE90038B1
:1038C00001224B46EAE707A92068CDE904321DF042
:1038D00020FB059A049B0146501CCDE9003804F1F9
:1038E000040B08BF079A4B46D8E7CDE9023861239D
:1038F000009304F1040BCDF804900A2301222168FF
:103900005046FFF733FDCCE7073424F00704D4E931
:103910000001CDE904324BF05BFD059A049BCDE933
:10392000008200EE100A4A463946504604F1080B60
:10393000FFF794FEB5E7284609B0BDE8F08F00BF59
:103940006C420508714205080EB403B503AA52F88B
:10395000041B0192FFF7D0FE02B05DF804EB03B048
:0439600070470000AC
:020000040802F0
:10000000024B1A69026018610020704748470020BF
:10001000024B1A6912681A61704700BF48470020F6
:10002000C460056146618761C0F81C80C0F82090FB
:10003000C0F824A0C0F828B0C0F82CD080ED0C8BFC
:1000400080ED0E9B80ED10ABC0F808E0FFF7D8BF45
:10005000104A08B513690BB923F0B0FA1968586053
:1000600011611846C468056946698769D0F81C8023
:10007000D0F82090D0F824A0D0F828B0D0F82CD018
:1000800090ED0C8B90ED0E9B90ED10ABD0F808E04E
:10009000012070474847002010B50021044600F0B9
:1000A00075FA18B914B120460CF02CF910BD0021D6
:1000B00000F06CBA10B50121044600F067FA18B9D7
:1000C00014B120460CF01EF910BDFFF7E5BF10B5C6
:1000D00001220C4600F0A6FB18B914B120460CF022
:1000E00011F910BD00F09EBB00F02ABB2DE9F043D2
:1000F0002A4C00254FF00309D4F8EC71002101319E
:1001000043189A0803F00303BA5C5B0042FA03F356
:1001100003F00303022BF2D0D4F8F83109018A0866
:1001200003EB001081B300EB820103681A0728D1AA
:10013000D4F8F8219A4224D89A1AD4F8FC614FEAEC
:10014000921C120902F003079E424FEA470718D992
:10015000D4F8ECE11EF80C8048FA07F303F003032F
:10016000012B0ED109FA07F747EA080704EB450807
:100170003F2D0EF80C709ABF0135A8F80422C4F880
:10018000003204308842D0D12DB1013D04EB45034B
:10019000B3F80402B0E7BDE8F08300BF4847002091
:1001A00021F00F0370B5174A174D1C1AE400A2FB8B
:1001B0000424640A0219A3EB8416C5F8F421002173
:1001C0002246C5F8FC31C5F8F041C5F8EC01C5F888
:1001D000F8611FF00DF8A2000732D2080021D5F80F
:1001E000F4011FF005F800234FF480314FF0FF3287
:1001F000C5F88412C5F88C22C5F89032C5F888324B
:1002000070BD00BFF32C23FA48470020034AB2F820
:1002100084320133A2F88432704700BF484700207F
:10022000034AB2F88432013BA2F88432704700BF1F
:1002300048470020034BB3F88402003018BF012068
:10024000704700BF48470020F8B51C4DB5F8843210
:1002500000220133A5F88432C5F88822C5F80022AF
:100260002C1D05F5E676032754F8043F1A0719D12B
:10027000D5F8F801834215D3181AD5F8FC114FEAC6
:10028000901C000900F003028B424FEA420209D29F
:10029000D5F8EC1111F80CE04EFA02F303F0030369
:1002A000012B02D0A642DFD1F8BD07FA02F242EAE2
:1002B0000E0201F80C20FFF719FFF3E74847002072
:1002C00031B3F8B5041F174E04EB8105032754F82A
:1002D000043F1A0719D1D6F8F801984215D8181A10
:1002E000D6F8FC114FEA901C000900F00302994275
:1002F0004FEA420209D9D6F8EC1111F80CE04EFA97
:1003000002F303F00303012B03D0A542DFD1F8BDB4
:10031000704707FA02F242EA0E0201F80C20FFF7DA
:10032000E5FEF2E7484700202DE9F04F514ED6F8A0
:10033000F011D6F8003283B0890000256BB3C6F8FF
:100340000052F9B10024A208D6F8EC0104F003032E
:10035000825C5B0042FA03F303F00303032B05D036
:1003600001348C42EFD3D6F80032E7E72046FFF79E
:10037000BDFED6F8F01101348900A142E3D8D6F8C9
:100380000032DBE7B6F884320022013BA6F8843263
:10039000C6F8902203B0BDE8F08F0029F2D09E4647
:1003A0001D464FF003084FF0020A06E0032B56D01B
:1003B000012B20D001358D42E4D2AF08D6F8EC21D4
:1003C00005F00304D05D640040FA04F303F0030376
:1003D000022B02EB070CE9D1BEF1000FEAD008FABC
:1003E00004F420EA04008CF80000D6F8F0114FF075
:1003F000010E8900DEE74FEAD50BD6F8F42112F89A
:100400000B1005F0070941FA09FE1EF0010F5A44CE
:10041000E5D02801D6F8F8C15CF80030604493B10B
:100420006A46B1210BF094F9009A3AB10CF092F9B6
:10043000DDE900010CF064F90CF0A2F9D6F8F42122
:1004400012F80B105A44012303FA09F321EA0301BD
:100450001170D6F8EC3103EB070CD85DBFE70AFA50
:1004600004F420EA0400D055D6F8F0114FF0000E45
:1004700089009FE748470020054BB3F884220021FC
:100480000132A3F88422C3F80012FFF74DBF00BF6A
:10049000484700203C4B2DE9F047D3F8F811D3F83A
:1004A000FC21D3F8F061D3F8EC710023C0E90133EB
:1004B000C0E90333C0E90533521A02601D46B60095
:1004C0009E469C461C461A4699461946984617F879
:1004D000093049000B4103F00303012B49D040D3FD
:1004E000022B02D1013545600134013296420ED013
:1004F0004FEA920902F0030117F809304FEA410A66
:1005000043FA0AF313F0030301D0012BDFD1012CCE
:1005100011D0022C02D14169013141618169A142AE
:1005200038BF846196420FD0012B26D04FEA920942
:1005300002F00301CBE70169013101618169A14248
:1005400038BF84619642EFD1C44503D99642C0F8C2
:100550000CC017D12D014FEA0E13C0E90153BDE8BD
:10056000F0870EF1010EC0F808E00CF1010C1C46FA
:10057000BBE7013545601C46B7E7E045E6D34FF0E1
:10058000000CD3E7E046FAE7484700200F302DE99A
:10059000F04706095CD0694DB5F88432002B57D17D
:1005A000B5F88632002B01F001040CBF4FF0010EAC
:1005B0004FF0000E51D1D5F89012D5F8F0718F425E
:1005C00039D9D5F8ECC1481E604400231AE0013344
:1005D0009E4254D912F00C0F1ED101339E4240F2BC
:1005E000A48012F0300F1CD101339E4240F2A08053
:1005F00012F0C00F1AD101339E4240F29C800131AB
:10060000B94218D210F8012F12F0030FDFD012F008
:100610000C0F4FF00003E0D012F0300F4FF000034A
:10062000E2D012F0C00F4FF00003E4D00131B94224
:100630004FF00003E6D3BEF1000F09D127F0C8F94F
:10064000D5F89012D5F8F0718F424FF0010EB8D85E
:100650004FF000084046BDE8F087D5F88822D5F86D
:100660008C329A42A7D327F0B3F9D5F89012D5F877
:10067000F0718F4288BF4FF0010EA2D8E8E78900E1
:10068000CA1A012B02F1010701F1010E08BF4FEA5E
:100690009E034FEA970008BFC5F8903207F00303A6
:1006A0004FEA43081CF80090012303FA08F30232D2
:1006B00043EA090391420CF8003012D34FF00208CC
:1006C0009008D5F8ECC102F003031CF800905B0021
:1006D00008FA03F3013243EA090391420CF80030AF
:1006E000EED2D5F8F8A1D5F888324FEA0719AEEB6B
:1006F00007020AEB09081E44120140460021C5F812
:1007000088621EF075FD6CB10023D5F8F4114AF82B
:100710000930FA080123885C07F0070703FA07F796
:1007200007438F544046BDE8F08789000131A7E7B1
:1007300089000231A4E789000331A1E7484700207E
:10074000F0B41C4EB6F884328BBB80B3D6F8F831C7
:10075000D6F8F451C01AC10904096B5C04F007070C
:100760000122BA4023EA02036B54D6F8902283098F
:100770009342D6F8EC0138BFC6F89032C15CA508A8
:1007800004F0030303275B0007FA03F321EA0303E2
:1007900043550134D6F8EC01A50804F00303415D8C
:1007A0005A0041FA02F202F00302022AEBD0F0BC36
:1007B000704700BF4847002010F00F031BD11849B5
:1007C000D1F8F821824216D810B4D1F8FC41844205
:1007D00022D9801AD1F8EC4181090209615C02F04A
:1007E00003004000014101F003010129184604D033
:1007F0005DF8044B704700207047013013189908CA
:1008000003F00303615C5B0041FA03F303F00303AD
:10081000022BF2D00001EBE718465DF8044B70475D
:10082000484700208C46002800F087802DE9F84FCB
:10083000874CB4F88452002952D0002D51D1D4F8FD
:10084000F811D4F8F031A0EB01094FEA1917791C1F
:100850004FEA830E0CF10F068E454FEA161640F252
:10086000F380D4F8ECA14FF001084FEA910B01F0AE
:1008700003031AF80BB05B004BFA03F303F0030316
:10088000022B32D023B9013508EB0503B3422ED336
:1008900046454ED02FD34544B5428246C0F08380B2
:1008A00007EB08023744974210D902219008D4F888
:1008B000EC5102F0030315F800C05B0001FA03F3EA
:1008C000013243EA0C0397422B54EFD1A6EB080206
:1008D00012010AEB0810002155461EF089FC01E0C8
:1008E0007DB300252846BDE8F88F08F101080131E5
:1008F0008E45BAD1CCE73E44354647444FF0030914
:100900004FEA950ED4F8EC1105F0030311F80EC070
:100910005B0009FA03F301352CEA0303AF4201F847
:100920000E30EDD1D4F89032B6089E4238BFC4F8EC
:10093000906205462846BDE8F88F01466046FFF7FD
:1009400025BED4F8F811D4F8F461401AC10905099C
:10095000735C05F007070122BA4023EA02037354CF
:10096000D4F89032D4F8EC618009984238BFC4F8CA
:100970009002315C05F00303A80803275B0007FA27
:1009800003F321EA030333540135D4F8EC61A808DA
:1009900005F00303315C5A0041FA02F202F003024F
:1009A000022AEBD09DE74FEAD919D4F8F43113F8B5
:1009B000091007F007073941002A92D001F0010120
:1009C0006046FFF7E3FD054600288AD04FEA08128B
:1009D00051461EF0C9FBB4F88432002B82D1D4F802
:1009E000F801D4F8F471AAEB0000C10906097B5C98
:1009F00006F0070C012202FA0CF223EA02037B54F0
:100A0000D4F89032D4F8EC718009984238BFC4F819
:100A10009002395C06F00303B0084FF0030C5B0052
:100A20000CFA03F321EA03033B540136D4F8EC71CA
:100A3000B00806F00303395C5A0041FA02F202F0F2
:100A40000302022AEBD04DE74FF0010820E700BF78
:100A5000484700202DE9F04F404BD3F8FC01D3F874
:100A6000F821D3F8F011D3F8EC3185B00025821AC3
:100A700003924FEA810EA8462F460295AA46AB463E
:100A80002E46A9462C46AC462A4613F80C105200B6
:100A9000114101F0030101294DD046D3022902D1B1
:100AA0000BF1010B0136013474450CD04FEA940C64
:100AB00004F0030213F80C105000014111F003017F
:100AC00001D00129E1D1012E0FD0022E08BF08F17B
:100AD0000108B54238BF354674450DD001292ED0E6
:100AE0004FEA940C04F00302CFE7B54238BF354615
:100AF000744507F10107F1D14FEA0A130093029BF5
:100B0000039A17491748994538BF99464FEA0B137E
:100B1000E2F71AFFCDE9005943463A461249114817
:100B2000E2F712FF05B0BDE8F08F0AF1010A09F102
:100B300001090E46B7E70BF1010B0E46B3E7029A27
:100B40004A4528BF4FF00009CAD2CDF808904FEAB5
:100B5000940C4FF0000904F0030296E74847002088
:100B6000B8F7040864420508DCF704082DE9F84FDB
:100B7000524F5349D7F8F8215248E2F7E5FED7F82B
:100B8000F051AD0000F08680DFF870A1DFF87091C1
:100B9000DFF83081002418E0D7F8EC3113F80B307F
:100BA00043FA06F606F00306022E6FD0032E6BD032
:100BB000012E44D02E2244494046E2F7C5FED7F824
:100BC000F0510134AD00A54264D904F00306A0063B
:100BD0004FEA46064FEA940BDED1AC4228D2D7F852
:100BE000EC0110F80B303341990721D1234604E082
:100BF000415C41FA02F292074AD1013303F0030249
:100C0000AB424FEA93014FEA4202F1D12A1B7F2AFD
:100C10000ED992092D494046E2F796FED7F8F031F9
:100C200025F03F04B4EB830F34D24FEA940B002637
:100C30000AEA041249464046E2F786FEACE7D7F8D6
:100C4000F811234B22018A589A4229D0214B9A420B
:100C50002AD0214B9A4229D0204B9A4222D0204BB5
:100C60009A421FD01F4B9A4222D01F4B9A421FD04C
:100C70001E4B9A421ED01E4B9A421DD01D4B9A42CB
:100C800014BF68224D2296E76D2294E73D2292E739
:100C90001D46BBE718490B48BDE8F84FE2F7FABA22
:100CA000542288E7532286E74C2284E7442282E7D5
:100CB000412280E746227EE742227CE74847002027
:100CC00070F7040864420508B0F704088CF70408BC
:100CD000C877050864690508CC5B05082875050810
:100CE000787205088457050848570508A063050869
:100CF00030640508106B0508B4F70408F0FF0F0016
:100D0000A8F70408054B5B695A68824204D8801A28
:100D1000043053F8200070471B68F5E7484700206F
:100D2000014441F20553884204D398B2002808BF19
:100D30000120704710F8012B03EB43135340F2E7F7
:100D4000034B044A5A610022C3F8D021704700BF08
:100D5000484700202CE105082DE9F84F82468946D6
:100D6000FFF7DEFF134B5C6983460CB920461CE09D
:100D7000E66804F1100707EB86063D46B54201D34D
:100D80002468F2E7A84658F8040B03885B450ED1A7
:100D900083784B450BD14A46514603301EF05AFA30
:100DA00028B96068ED1B00EBA500BDE8F88F45464B
:100DB000E4E700BF484700202DE9F04780460E4693
:100DC000FFF7CAFF0246002840F08180FF2E03D9BA
:100DD000404941480AF032FD404CD4F8D001351D5D
:100DE000A0B1D4F8D831D4F8D4112B448B420DD90A
:100DF0002944FFF777F90746F0B90246D4F8D8112D
:100E0000D4F8D001FFF76EF9C4F8D071D4F8D0311E
:100E1000F3B9802D2F4638BF80273846FFF747F9B2
:100E2000C4F8D00178B92846FFF741F9C4F8D001D9
:100E300040B928460BF066FAD4F8D4312B44C4F8F4
:100E4000D431E3E72F460023C4F8D471C4F8D83175
:100E5000D4F8D891D4F8D0A131464D444046C4F8D6
:100E6000D851FFF75DFF0AEB09070AF8090032467F
:100E7000000ABE703E4478704146F81C4FF00008EE
:100E80001EF072F986F803806369D3E90253AB421E
:100E900013D36D000A2D38BF0A25281D8000FFF7E7
:100EA00006F90028C5D0626902605368D268C0F8AC
:100EB0000C801344C0E9013560616369D9685A68E0
:100EC000481C0431D860013A43F8217002441046AE
:100ED000BDE8F0877B0F0508FC6005084847002047
:100EE00010B504461EF0D8F901462046BDE8104072
:100EF000FFF762BF08B5FFF705FF008808BD08B51A
:100F0000FFF700FF807808BD08B5FFF7FBFE033050
:100F100008BD08B5FFF7F6FE83780B60033008BD07
:100F20002DE9F8431D46002303600B6013602B601E
:100F3000174BDFF860905C690746884616460CB18F
:100F40004C4505D12B68326813442B60BDE8F8830B
:100F50003B6801333B60E268D8F800301344C8F8BE
:100F60000030E26804F1100303EB8202934207D3DE
:100F70002046FFF721FC2B68246818442860DEE730
:100F800053F8041B88783168043101443160EDE77F
:100F9000484700202CE105082DE9F8430E4B0F4F80
:100FA0005C69DFF83C80DFF83C900CB1BC4201D1B9
:100FB000BDE8F883E36804F1100505EB8306B5424C
:100FC00001D32468F1E755F8042B41460332484623
:100FD000E2F7BAFCF3E700BF484700202CE1050820
:100FE000740F05086442050830B50023202411F869
:100FF000012F0AB9027030BD120600F101051FD59C
:101000000BB1047028460B78124A03F07F036BB9CA
:10101000013A12F8013F13F0800F054600F101007C
:101020000BD003F07F032B700123E0E712F9015B83
:10103000002DFBDA013BDBB2E9E700F8013CE8E711
:10104000012B04BF047028460B7803700130022383
:10105000CDE700BF12F9040838B5446803680C44B2
:101060009C42054610D9037BDB0703D500210748C6
:101070000AF0E4FB103424F00704083421468068A9
:10108000FFF725F82C60A86038BD00BFFC6005089C
:1010900070B504460E4611461546FFF7DDFFD4E94C
:1010A00001302A46314618441EF08AF862682A4404
:1010B000626070BD70B5466804468E42354628BFF2
:1010C0000D460121FFF7C8FFA368681C5919721B60
:1010D00018441EF075F86368A06801336360284403
:1010E00070BD38B504460025002914BF084601200C
:1010F00020606560FEF7D0FF237BA06065F30003EE
:10110000237338BD38B505460C460131FFF7E9FFBA
:101110006C6038BD0023C0E90132037B016043F0FD
:10112000010303737047000038B514460546FFF706
:10113000D8FF024B2560636038BD00BF91100208E4
:10114000037BDB0710B5044602D48068FEF7CCFFB2
:101150000023A36010BD38B505461020FEF79CFFA4
:1011600029460446FFF7BDFF204638BD10B50446AA
:1011700050B1037BDB0702D48068FEF7B5FF204641
:10118000BDE81040FEF7B0BF10BD000038B5037BCE
:10119000DB0704460D4603D5002107480AF04EFB45
:1011A000016880682944FEF792FF2368A0601D440F
:1011B0002560184438BD00BFFC60050838B50446FA
:1011C0000D46FFF749FFD4E901301D44656018441E
:1011D00038BDD0E900239A4210B5044602D101215E
:1011E000FFF7D4FFD4E901320021D154A06810BD2B
:1011F00010B50C460121FFF7E1FF047010BD7F29F7
:10120000F8B50C46CEB204D80121FFF7D7FF06701F
:10121000F8BD06F03F06B1F5006FC1F3871546F043
:10122000800607D20221FFF7C9FF65F03F05057070
:101230004670EDE705F03F05B1F5803FC1F3073794
:1012400045F0800508D20321FFF7B8FF67F01F03C0
:10125000037045708670DBE70421FFF7AFFFA40C35
:1012600007F03F0364F00F0463F07F0304704370E2
:101270008570C670CCE738B5054608460C461EF0AA
:101280000BF8214602462846BDE83840FFF700BF6C
:1012900010B51446FFF70EFF047010BD10B51446CC
:1012A000FFF708FF047010BD43688B4234BF002372
:1012B0005B1A4360704738B5154642688A42044657
:1012C0000B4603D929448A4201D8436038BD80685F
:1012D000D21A521B014418441DF072FF6268521B5F
:1012E0006260F3E703781A060AD503F07F03402211
:1012F000134207D110F8012F02F0C001802905D058
:101300001846704723EA02035208F1E702F03F0251
:1013100042EA8313EEE7421C10460132037803F0E1
:10132000C003802BF8D070470023814201D81846B3
:10133000704711F8012D02F0C002802A18BF013356
:10134000F3E701440346002099421A4600D870474B
:10135000127802F0C002802A03F1010318BF0130A5
:10136000F2E700007F289DBF024B185CC0F34000ED
:1013700000207047994205087F289DBF024B185CEA
:10138000C0F3C00000207047994205087F289DBF28
:10139000024B185CC0F3800000207047994205089A
:1013A0007F289DBF024B185CC0F38010002070475F
:1013B000994205087F2809D8064B1B5C13F00C0FD7
:1013C00006D1A0F15F035842584170470020704792
:1013D00001207047994205087F289DBF024B185C89
:1013E000C0F3001000207047994205087F289DBF78
:1013F000024B185CC0F3401000207047994205086A
:1014000008B50246FFF7E8FF00B12032104608BDDC
:1014100008B50246FFF7EAFF00B1203A104608BDC2
:101420003038092884BF20F020000738704710B5F5
:1014300001440246E5240020914203D8B0FA80F02E
:10144000400917E012F8013B30B103F0C003802BD4
:1014500011D10138C0B2EFE7BF2B09D9F72B09D85A
:10146000DB0803F0060344FA03F303F00300E3E7A9
:101470001B06E1D510BD0020FCE7023981420B4676
:1014800003D31A880239002AF8D00233181A401000
:10149000704770B51C09944215D2121B01EB440130
:1014A000154603F00F030E46012D31F8024B18BF0D
:1014B0003468DC40A4B2013D20F8024BF3D104B9FA
:1014C000013A104670BD0022FBE7F0B5059E0024EE
:1014D000921B2546A6420ED17600841900230E44A5
:1014E0009A4213D104EB420315B124F8125002338F
:1014F000181A4010F0BD31F8147033F814C0674466
:101500003D4420F814502D0C0134E3E736F8131055
:101510000D4424F813502D0C0133E1E7F0B4049E80
:101520000025921B2C46AE420AD176008519002375
:101530000E449A420FD105EB4201F0BCFFF79DBF6C
:1015400031F815703C4433F81570E41B20F8154051
:1015500024140135E7E736F813100C4425F813403E
:1015600024140133E5E72DE9F043079CDDF828E07A
:10157000DDE90876551E023984464FF6FF78A4EB64
:1015800002096C1C0AD100EB42011FB1012320F8B3
:1015900012300231BDE8F043FFF76FBF31F8024F60
:1015A0004444264409EB0504AC4296BF1C884FF620
:1015B000FF744444744486EA040E17FA8EF72CF83C
:1015C000027B98BF02334FEA144E360C3F0C013DAC
:1015D000D7E738B502290446806838BF02210D4696
:1015E00018B12368B1EB930F07D96900FEF76FFDBF
:1015F0002368A06065F39F03236038BD38B50546B6
:101600000C20FEF749FD2A78037862F300036FF39C
:1016100041030446037028682368C0F39D0060F30B
:101620009F0323606B6863604000FEF735FDA06098
:101630002A68A968C2F39D0252001DF095FD20465C
:1016400038BD10B501394B1C01D1002010BD30F858
:10165000113032F811401B1B002B04DB01F1FF316C
:10166000F1D00120F2E74FF0FF30EFE710B504466C
:1016700038B18068FEF738FD2046BDE81040FEF71F
:1016800033BD10BD38B505460C460221FFF7A1FF5A
:101690002B78002CB5BF43F001036FF300032B70D0
:1016A0002B704FF00003B8BF64426B6004B938BDC3
:1016B000D5E90132581C686022F81340240CF5E784
:1016C0000023C0E900338360704728B103789B078B
:1016D00002D48068FEF708BD704738B505460C4651
:1016E0004968FFF776FF22782B78A86862F3000339
:1016F0002B7063686B606268A1685200BDE8384077
:101700001DF032BD034609B959607047FFF7BABFF3
:1017100008B5FFF7D5FFBDE80840FFF7F3BF30B4C9
:10172000057805F0FE0545F002050570056862F3D1
:101730009F0500220560C0E9012130BC1946FFF772
:10174000E1BFF8B504469DF8185004211F4616461F
:10175000FFF73FFF23787DB1002E77F100020BDA0F
:1017600043F001037642237067EB47070021616075
:1017700056EA070304D1F8BD6FF300032370F5E7C1
:10178000D4E901104D1C656020F81160310C41EA6C
:101790000741380C0E460746EAE72DE9F04110EE06
:1017A000106A0378F20F62F300030370C6F30F436D
:1017B00013F4FF43074603D100237B60BDE8F081AB
:1017C000B3F5FF4FF8D0C6F3C754A4F17F05002D41
:1017D000F2DB04D10121BDE8F041FFF753BF162D24
:1017E000C6F31606D8BFC5F1170546F40006DCBFE0
:1017F000EE400025A4F16F084FF01003C8BF093573
:1018000098FBF3F8CCBF963C2C464146C4BF05F08C
:101810000F0594FBF3F4FFF7DCFEC7F8048024B156
:1018200062000021B8681DF0E3FC45B1BB6806FA10
:1018300005F2C5F1100523F81420EE4001346400D0
:101840004FEA48084445B9D0BB681E53360C0234F1
:10185000F8E72DE9F84304468F18C2F35B020D4602
:101860009846511C089EFFF7B4FE2278B8F1000F8D
:101870000CD042F0010200232270636028461FFA58
:1018800086FCB84205D3401BBDE8F88368F300022C
:10189000F1E70278A2F13003092B00F1010E05D91E
:1018A000A2F14103192B15D8A2F13703B342EAD2B2
:1018B000D4E9010180468946B8F1000F11D101EB4E
:1018C000400213B121F810300232521A52106260F5
:1018D0007046D6E7A2F16103192BD4D8A2F15703C1
:1018E000E4E7B9F8002002FB0C3329F8023B08F1C9
:1018F000FF381B0CE0E7F8B5044615461E46C1B19B
:10190000531E1E444FF0FF37E9000F3109092046EE
:10191000FFF75FFE237800216FF3000323706160FF
:101920004DB9D4E9011000EB4101FFF7A6FD60605D
:10193000F8BD0127E8E700230F2908DC32788A4048
:101940001343013D9BB201F108013E44F4D16268AA
:10195000501C6060A068103920F81230E0E70A4699
:10196000416838B5044609B9506890B113782578B4
:1019700003F0010305F00100181A0AD153689942D7
:1019800008D30AD89268A068FFF75BFEEB0748BF50
:10199000404238BD4FF0FF30F8E70120F6E78842BB
:1019A00010B5044601D0FFF798FE23786FF30003CB
:1019B000237010BD884210B5044601D0FFF78DFE9C
:1019C0002378C3F30002C2F1010262F30003237023
:1019D00010BD88421FB5044601D0FFF77EFE626845
:1019E00062B901212046FFF7F4FDA26801231380AC
:1019F0006360237843F00103237010E02378D90754
:101A00000FD56FF30003A16823700123ADF80E30EA
:101A1000009308460DF10E03FFF780FD606004B0EF
:101A200010BD511C2046FFF7D4FDD4E9012101234C
:101A3000ADF80E30009308460DF10E03FFF745FD9B
:101A40006060D6E72DE9F0470E464968054617461F
:101A500001B12AB931462846BDE8F047FFF73DBE3F
:101A600002F10F0424092144FFF7B3FDD6E9011068
:101A700017F00F026FF0004E04EB010707EB0E08A2
:101A80006FF0010C0CFB01FCAB684FEA48088E4478
:101A90000CEB4E0E08BF1022C444864403EB0C0925
:101AA0000020C2F11002F1B9D04023F80C006FF011
:101AB000010303FB049304F100420233013A184688
:101AC00052001DF095FB08F102080346434417B18C
:101AD00033F8022D92B16F6032782B7862F30003F5
:101AE0002B70BDE8F0873EF811A04AEA000020FA0A
:101AF00002FA29F811A000040139D4E7013FE6E712
:101B0000F0B50E46496885B00546144601B12AB9BC
:101B100031462846FFF7E1FD05B0F0BDFFF759FD5E
:101B2000D6E901212346A868FFF7B3FC6860317845
:101B30002B7861F300032B70DB070246ECD5002302
:101B40007768ADF80E3021099F4201D08B4212D147
:101B50008F42E1D9B36804F00F0433F81110012368
:101B600003FA04F4013C214218BFADF80E30BDF871
:101B70000E304BB9D0E7B06830F8130078B10123CC
:101B80008F42ADF80E30E5D8A96801234AB1009321
:101B900008460DF10E03FFF798FC6860BCE70133BF
:101BA000D2E70B806B60B7E773B553680C464968A2
:101BB00099420646154606D308D89268A068FFF7F2
:101BC00040FD002802DA23462C461D4623782A7859
:101BD00061685340DB0713D401313046FFF7F9FC4D
:101BE0006B680093AB68B068D4E90121FFF76DFC26
:101BF00070602278337862F30003337002B070BDF6
:101C00003046FFF7E6FC6B680093AB68B068D4E938
:101C10000121FFF783FCEBE7F7B553680C464968F1
:101C200099420646154606D328D89268A068FFF761
:101C300008FD002822DA234601272C461D4623787A
:101C40002A7861685340DB071AD501313046FFF727
:101C5000C0FC6B680093AB68B068D4E90121FFF762
:101C600034FC70602278337802F001020FB1C2F1C7
:101C7000010262F30003337003B0F0BD0027DEE71A
:101C80003046FFF7A6FC6B680093AB68B068D4E9F8
:101C90000121FFF743FCE4E72DE9F04F16464A68BF
:101CA00073689A4224BF33460E460D4628BF1D4630
:101CB00033787168DA0785B0044621D42B7813F0A5
:101CC00001071DD1FFF785FCD5E9011CA068B668A6
:101CD0003B4699420BD100EB4101FFF7CEFB237845
:101CE00060606FF30003237005B0BDE8F08F36F835
:101CF00013203CF813502A4020F813200133E8E762
:101D000001312046FFF765FC32782978D6F804C007
:101D1000A068D5F8088082EA0103DB4303F00103E1
:101D20005F420093B368BFB202F00102A3F102095F
:101D30006B68029701F001015742BFB2C1F1000E7A
:101D4000A3EB0C0301971FFA8EFE0CF1FF378246BE
:101D500003937B1C16D1009B00EB4C011BB10123AC
:101D600020F81C300231FFF788FB606033782A7856
:101D7000C3F30003C2F300021340227863F30002AE
:101D80002270B1E739F802BF019B83EA0B0B039B7A
:101D90005A4403EB070BBB4598BFB8F800B0029B51
:101DA00094BF8EEA0B0BF346594402EA010B8BEA0F
:101DB000030B009B13FA8BF32AF8023B4FEA134301
:101DC00098BF08F10208090C120C0093013FC0E70C
:101DD0002DE9F84F15464A686B689A4224BF2B4696
:101DE0000D460E4628BF1E462B786968DA07044662
:101DF0002ED4327812F001082AD1FFF7EAFBD6E997
:101E0000013CA9686D68A768ED1A4246934210D15B
:101E10005B00194400223B44954213D103EB450378
:101E2000DB1B5B10636023786FF300032370BDE856
:101E3000F88F31F812003CF81260304327F8120096
:101E40000132E3E731F8120023F812000132E3E730
:101E500001312046FFF7BDFBD6E901382F783678EF
:101E60006968A068AD6807F0010706F00106C7F1D0
:101E7000000EC6F1000C1FFA8EFE1FFA8CFC4A1EE3
:101E8000023D82464FF00109A3EB010B531C08D120
:101E900000EB4101FFF7F1FA2378606043F00103A2
:101EA000C4E735F8023F8EEA03031F440BEB02033D
:101EB000934296BFB8F8003063468CEA03031E4491
:101EC00047EA06036FEA030319FA83F398BF08F1A0
:101ED00002082AF8023B360C3F0C4FEA1349013A3C
:101EE000D4E7F0B514464A6863689A4228BF23468F
:101EF0000E4624BF0C461E462778337861685F4043
:101F000017F0010785B005463AD1FFF762FB237849
:101F100013F0010328D1D6E90117A2686468A86804
:101F2000641A994210D149000A4400230144A34293
:101F300014D101EB4301FFF7A0FA2B7868606FF32F
:101F400000032B7005B0F0BD32F8136037F813C0F2
:101F500086EA0C0620F813600133E2E732F81360DA
:101F600021F813600133E2E7CDE902770197736846
:101F70000093B368A868D4E90121FFF7F4FADCE71D
:101F80000131FFF726FB3378A868DB4303F0010338
:101F900003932378DB4303F00103029301230193AE
:101FA00073680093B368D4E90121FFF7DCFA2B785A
:101FB000686043F00103C4E72DE9F04F4B6885B03A
:101FC00004460E4615460BB1536823B900236360DF
:101FD00005B0BDE8F08F81422FD1FFF70FFBA5427E
:101FE0000646074600D105466B68716820461944CD
:101FF000FFF7EFFA2268A068C2F39D0252000021A9
:102000001DF0F6F8B368D6F804C002936FF0010330
:10201000D4F808A003FB0CF3D5E90128023B0AEB36
:102020004C010020039392B3039BDDF808B0CDF878
:1020300004C003EB010E002318E0824204D1FFF735
:10204000DDFA05460746CFE70027CDE73EF8029FB9
:1020500099443BF8023B1846B8F8003003FB009364
:102060000198AEF8003001381B0C0190019800284F
:10207000ECD1084601F1020E0BB10B807046A0EBCB
:102080000A004010013A08F102087146CBE760608F
:10209000337829784B4013F0010F237838460CBF72
:1020A00062F3000343F00103237005B0BDE8F04F75
:1020B000FFF7DCBA4B6870B50646144613B11378C7
:1020C000DA0702D50023736070BD636823B901216C
:1020D000BDE87040FFF7D6BA0846FFF78FFA05460D
:1020E0002046FFF78BFA012104463046FFF7CAFA73
:1020F000636883B1A3681B88DB0704D52A46314691
:102100003046FFF759FFD4E9012101230846FFF7C4
:10211000C0F9606038B92846FFF7A8FA2046BDE844
:102120007040FFF7A3BA2A4629462846FFF744FF26
:10213000DEE72DE9F04F0C4651688FB09146013132
:1021400005460193FFF745FAD9F80420A868013243
:10215000520000211DF04CF800236B60D9F80410E8
:1021600020460131FFF735FA49462046FFF7B5FA18
